:020000040800F2
:1000000000200020C1000008191000082D10000871
:1000100000000000000000000000000000000000E0
:10002000000000000000000000000000191000089F
:10003000000000000000000019100008191000085E
:1000400019100008191000081910000819100008EC
:1000500019100008191000081910000819100008DC
:1000600019100008191000081910000819100008CC
:1000700019100008191000081910000819100008BC
:1000800019100008191000081910000819100008AC
:10009000191000081910000819100008191000089C
:1000A000191000081910000819100008450C000864
:1000B000191000081910000819100008191000087C
:1000C00000F054FF00F016FFE1235B02180000F07F
:1000D00015FD62B600F0B0FAFEE7000080B500AF93
:1000E0000A4B0B4A1A600B4B00221A600A4B05227E
:1000F0001A60C046084B1A6880235B021340F9D08F
:10010000054B00221A60C046BD4680BD14E000E0E9
:100110007FBB000018E000E010E000E080B582B096
:1001200000AF786001E0FFF7D9FF7B685A1E7A6064
:10013000002BF8D1C046C046BD4602B080BD90B588
:1001400083B000AF040008001100FB1D221C1A70D0
:10015000BB1D021C1A707B1D0A1C1A70194B012250
:100160001A60FB1D1B785B00174A1A43174B1A6075
:10017000164B1A68154B802189010A431A60C04644
:10018000134B1B6801221340012BF9D1114BBA1DEF
:1001900012781A60C0460E4B1B6801221340012BD7
:1001A000F9D10C4B7A1D12781A60C046084B1B68B7
:1001B00001221340012BF9D100231800BD4603B0E2
:1001C00090BDC046005400400000020204540040AC
:1001D000185400402854004090B585B000AFBA6074
:1001E0007B600F243B19021C1A700E23FB180A1C9B
:1001F0001A70214B01221A60BB6801331B04802254
:1002000092041A433B191B785B001A431B4B1A607C
:100210001A4B1A68194B802189010A431A60C0469B
:10022000174B1B6801221340012BF9D1154B0E22ED
:10023000BA1812781A60C046114B1B68012213408D
:10024000012BF9D10FE07B685A1C7A601A780D4BAC
:100250001A60C0460A4B1B6801221340012BF9D1DA
:10026000BB68013BBB60BB68002BECDC00231800C3
:10027000BD4605B090BDC046005400400454004047
:10028000185400402854004090B585B000AFBA60C3
:100290007B600F243B19021C1A700E23FB180A1CEA
:1002A0001A70274B01221A603B191B785B00254A04
:1002B0001A43254B1A60244B1A68234B802189016D
:1002C0000A431A60C046214B1B6801221340012BD0
:1002D000F9D11F4B0E22BA1812781A60C0461B4B78
:1002E0001B6801221340012BF9D1154B05221A601E
:1002F000BB681B04174A1A43134B1A60124B1A6847
:10030000114B802189010A431A6010E0C0460F4B4F
:100310001B6804221340042BF9D10F4B19687B682A
:100320005A1C7A60CAB21A70BB68013BBB60BB68DA
:10033000002BEBDC00231800BD4605B090BDC04685
:1003400000540040000001020454004018540040D2
:1003500028540040A404000224540040F0B589B0A1
:1003600004AF78605522F0215220FFF7E8FE00220A
:10037000FB215220FFF7E3FE08243B190622FA2155
:100380005220FFF781FF7B68002B1AD020003B181A
:100390001B781C003B185B781D003B189B781E00E7
:1003A0003B18DB781A003B181B7919003B185B7966
:1003B0001B4802930191009233002A00210002F0B1
:1003C00033FB08243B1900221A703B1900225A7093
:1003D0003B1900229A703B190022DA703B19002267
:1003E0001A713B1900225A71AA22F0215220FFF7FC
:1003F000A6FE3B19062240215220FFF7EDFE3B19D5
:10040000062240215220FFF7E7FE3B19042240213B
:100410005220FFF7E1FEC046BD4605B0F0BDC04624
:10042000006C000880B584B000AF78607B6806225D
:1004300000215220FFF728FF0F23FB1800221A701B
:1004400014E00F203B181B787A68D3181B7817220A
:100450005340DAB23B181B787968CB181732D2B206
:100460001A703B181A783B1801321A700F23FB18C8
:100470001B78052BE5D9C046C046BD4604B080BDFB
:1004800080B500AF174B1A68164B8021C9020A438A
:100490001A60154B1A68144B802189030A431A60AD
:1004A000124B1A68114B802189010A431A60104BC4
:1004B0001A680F4B802149040A431A600B4B1A68D3
:1004C0000A4B802109020A431A60094B1A68084B3B
:1004D000802149050A431A60064B074A1A60C04644
:1004E000BD4680BD141002401C10024000040048AC
:1004F00020040048105400404B1AB00080B500AFF3
:10050000324B1A68314B802189020A431A60304B02
:100510001A682F4B802149010A431A609023DB059A
:100520001A689023DB0540210A431A60294B1A6898
:10053000284B08210A431A609023DB051A68902390
:10054000DB05802149000A431A60224B1A68214BBF
:1005500010210A431A609023DB051A689023DB05FB
:10056000802109010A431A601B4A1B4B12681A605A
:100570009023DB051A689023DB05802189010A435B
:100580001A60154A144B12681A609023DB051A682A
:100590009023DB05802109020A431A600E4A0E4BA4
:1005A00012681A600D4B00221A600C4BCF22920089
:1005B0001A600B4BE022D2001A60084B1A68074BF6
:1005C00040210A431A60C046BD4680BD1410024057
:1005D000181002401400004820000048003001407C
:1005E0000430014080B584B000AF0200FB1D1A70DA
:1005F0000F23FB1800221A70C0460D4B1B68022205
:100600001340FAD00B4AFB1D1B781370C046084BF1
:100610001B6880221340FAD1064A0F217B181278FA
:100620001A707B181B781800BD4604B080BDC04608
:10063000083001400C30014090B58FB004AFD24B70
:10064000180002F0F1F9D14BD14AD249D24802F058
:10065000EBF9FFF715FF0120FFF780FE6420FFF79D
:100660005DFD3B1D1800FFF7DDFE3B1D1B78803B49
:10067000BB613B1D5B78803B7B617A69B969C74B85
:10068000180002F0D1F9FFF739FF9023DB051A6853
:100690009023DB05C2490A401A60C24B1A68C14B5D
:1006A000802149020A431A60BE4B1A68BD4BBE49FD
:1006B0000A401A609023DB051A689023DB0530217D
:1006C0008A431A60B74B1A68B64B10210A431A6066
:1006D000B44B1A68B34B20218A431A60FFF70EFF10
:1006E00000F002FE2021782000F00BFEAF4B1B68CB
:1006F000042213400CD0AE4B180002F021FAAD4B8F
:10070000180000F069FEAC4B180000F047FE0BE04B
:10071000AA4B180002F014FAA74B180000F05CFE78
:10072000A44B180000F03AFE3B1D1800FFF77AFEBC
:100730003B1D1B78803B1A00BB69D31A3B613B1DF4
:100740005B78803B1A007B69D31AFB603B1D9B786A
:100750009B007B623B1DDB789B003B623B1D1B7952
:100760009B00FB613B1D5A790B23FB1801210A40BA
:100770001A703B1D5B795B10DAB20A23FB1801216A
:100780000A401A703B1D5B791A000423134002D003
:100790007B6A02337B623B1D5B791A00082313409E
:1007A00002D07B6A01337B623B1D5B791A00102308
:1007B000134002D03B6A02333B623B1D5B791A0057
:1007C0002023134002D03B6A01333B623B1D5B791F
:1007D0001A004023134002D0FB690233FB613B1D2A
:1007E0005B795BB2002B02DAFB690133FB61FB68CA
:1007F000322B03DD724B01221A7037E0FB68323373
:1008000003DA6F4B02221A7030E03B69322B03DDB2
:100810006B4B03221A7029E03B69323303DA684BD1
:1008200004221A7022E00B243B191B78002B0AD1FA
:100830003220FFF773FC3B191B78002B16D1604B5D
:1008400005221A7012E00A243B191B78002B0AD1EA
:100850003220FFF763FC3B191B78002B06D1584B65
:1008600006221A7002E0564B00221A7000F0C8FDF2
:10087000031E09D0534B180000F005FE514A524B9D
:100880001100180002F0D0F800F028FB031E23D05E
:100890004C4B2021180000F0DBFA4C4B180002F002
:1008A0004FF9484B180000F023FEC04600F04CFE04
:1008B000031EFBD100F071FE03001A00444B1A70B6
:1008C000434B1B78012B03D1424B180002F038F93F
:1008D00000F0A7FE00F07CFE344B1A6880235B001A
:1008E000134029D1C046314B1A6880235B00134066
:1008F000F9D0344A384B100019000C231A0001F0CB
:100900004CFB304B180000F0F3FDC04600F01CFE1D
:10091000031EFBD100F041FE03001A002C4B1A709D
:100920002B4B1B78012B03D12A4B180002F008F93E
:1009300000F077FE00F04CFE0B23FB181B78002B19
:1009400001D0312100E030210A23FB181B78002B55
:1009500001D0312200E030223C692048FB6903933A
:100960003B6A02937B6A0193FB680093230002F0C9
:100970005BF81B4B1B689B68180001F093F964201F
:10098000FFF7CCFBD0E6C046386C0008446C00088A
:10099000506C00085C6C0008646C0008AC6C0008CB
:1009A000FFFFFCFF0C000048FFFFFDFF10000048A8
:1009B000C86C00080000002008000020DC6C000863
:1009C000E401002000020020F06C0008FC6C00082C
:1009D000FC010020006D0008106D00081C6D00086F
:1009E0001400002090B585B000AF78603960184BD6
:1009F0001B68002B02D101235B4224E00023FB6033
:100A00000AE0FB685A1CFA603A68D418114B1800C7
:100A100000F0B1F9030023707B68013B1A00FB680A
:100A2000934205D20B4B180000F0CEF9031EE8D11B
:100A3000FB68002B06D03A68FB68D31800221A70B6
:100A4000FB6800E000231800BD4605B090BDC0461D
:100A5000BC0200202402002080B584B000AF786082
:100A60003960224B1B68002B02D101235B4238E026
:100A70007B683F2B0BDCC0461D4B180000F0A4F92F
:100A800003004022D21A7B689A42F5D302E0022387
:100A90005B4226E00023FB600BE03A68FB68D3185A
:100AA0001A78134B1100180000F036F9FB68013377
:100AB000FB607B68FA689A42EFD30E4B1B680822F2
:100AC00013400DD10B4B1A680A4B08210A431A60D8
:100AD000074B180000F04FF903001A00064B1A608C
:100AE00000231800BD4604B080BDC046BC020020F3
:100AF00070020020003801402838014080B584B0E1
:100B000000AF786072B63F4B00229A643D4B9A6CFE
:100B10003C4B5A643B4B5A6C3A4B1A643A4B00229A
:100B20009A64394B9A6C384B5A64374B5A6C364B33
:100B30001A64364B01221A60354B00221A60354B7D
:100B40001A68344B802189020A431A60324BFB60D9
:100B50007968F86800F0EEFE0300FB602F4B1A681E
:100B60002E4B8021C9020A431A602D4B1A682C4B68
:100B70002C490A401A609023DB051A689023DB0594
:100B8000802109030A431A60274B1A68264B10215B
:100B90000A431A609023DB051A689023DB05802145
:100BA00089030A431A60204B1A681F4B80214900B1
:100BB0000A431A601D4B1A681C4B8021C9010A4365
:100BC0001A601B4B1A681A4B6C210A431A60194BA6
:100BD00000221A60184B00221A60184BFA681A603B
:100BE000134B1A68124B01210A431A60144B1A68FE
:100BF000134B802109050A431A6062B6C046BD4600
:100C000004B080BD2402002070020020BC0200203D
:100C10002002002014100240006CDC020800004892
:100C200004000048FFFDFFFF2400004818100240A8
:100C30000038014004380140083801400C380140B8
:100C400000E100E080B500AF084B1B688022134034
:100C500001D000F025F8054B1B682022134001D07D
:100C600000F006F8C046BD4680BDC0461C380140B5
:100C700080B500AF074B1B68DAB2074B11001800B4
:100C800000F04AF8031E02D0044B01221A60C0464D
:100C9000BD4680BD243801402402002020020020EF
:100CA00080B500AF164B180000F08EF8031E08D078
:100CB000134B180000F05FF803001A00114B1A6084
:100CC0001BE0114B1A68104B08218A431A600F4B26
:100CD0001B684022134005D00D4B1A680C4B402175
:100CE0000A431A60094B1B688022134005D0094B48
:100CF0001A68084B10210A431A60C046BD4680BDE1
:100D00007002002028380140003801401C380140A2
:100D1000203801401838014080B582B000AF7860BB
:100D20000A00FB1C1A707B681A6C7B685B6C9A4229
:100D300005D17B689B6C002B01D0012317E072B6B4
:100D40007B681B6C591C7A6811647A68F91C0978F5
:100D5000D1547B689B6C5A1C7B689A647B681B6CC3
:100D6000402B02D17B6800221A6462B6002318006F
:100D7000BD4602B080BD80B584B000AF78607B68AE
:100D80009B6C002B01D100231AE072B67B685B6C70
:100D9000591C7A6851640F22BA187968CB5C1370B9
:100DA0007B685B6C402B02D17B6800225A647B68B5
:100DB0009B6C5A1E7B689A6462B60F23FB181B78E3
:100DC0001800BD4604B080BD80B582B000AF786029
:100DD0007B689B6C1800BD4602B080BD80B582B0B8
:100DE00000AF78600B4B1B68002B09D101235B42DD
:100DF0000BE07B685A1C7A6019000120FFF72CFE7B
:100E00007B681B78002BF4D100231800BD4602B08C
:100E100080BDC046BC02002080B582B000AF020099
:100E2000FB1D1A70FB1D19000120FFF715FEC046BF
:100E3000BD4602B080BD80B500AF044B1800FFF77F
:100E40009AFF03001800BD4680BDC0462402002062
:100E5000B0B584B000AF786039601E4B1B68002BC2
:100E600002D101235B4231E00023FB600B23FB181E
:100E700000221A7017E0C046174B1800FFF7A4FFB6
:100E8000031EF9D00B257C19134B1800FFF773FFD5
:100E900003002370FB685A1CFA601A007B689B18D9
:100EA0007A1912781A703B68013BFA689A4204DAA0
:100EB0000B23FB181B780D2BDDD1FB68002B04DD09
:100EC000FB687A68D31800221A70FB681800BD46C8
:100ED00004B0B0BDBC0200202402002080B500AFE9
:100EE000034B1800FFF770FF03001800BD4680BDDC
:100EF0002402002080B582B000AF164B7B60164BF9
:100F00003B6007E07A68131D7B603B68191D396000
:100F100012681A603A68114B9A42F3D304E03B68B6
:100F20001A1D3A6000221A603A680D4B9A42F6D3B5
:100F30000C4B3B6004E03B681A1D3A601B68984705
:100F40003A68094B9A42F6D3C046C046BD4602B045
:100F500080BDC0462071000800000020E401002090
:100F6000D4020020207100082071000880B500AF75
:100F7000244B1A68234B24490A401A60C046214B6F
:100F80001A6880239B041340F9D1204B1A681F4B29
:100F900001210A431A601D4B1A681C4B06218A4323
:100FA0001A601A4B1A68194B10210A431A60184B21
:100FB0001A68174B17490A401A60154B1A68144BE8
:100FC000A02189030A431A60114B1A68104B802133
:100FD000C9010A431A600B4B1A680A4B8021490465
:100FE0000A431A60C046074B1A6880239B041340CB
:100FF000F9D0074B1A68064B02210A431A60C04613
:10100000BD4680BD00100240FFFFFFFE00200240F1
:1010100004100240FFFFC3FF80B500AF024B180071
:10102000FFF7DCFEFEE7C046686D000880B500AF44
:10103000024B1800FFF7D2FEFEE7C046906D000895
:1010400080B582B000AF7860FEE780B582B000AFB7
:10105000786001235B421800BD4602B080BD80B5B8
:1010600084B000AFF860B9607A60044B0C221A605B
:1010700001235B421800BD4604B080BDD0020020B1
:1010800080B500AF034B0B221A6001235B421800AE
:10109000BD4680BDD002002080B582B000AF786030
:1010A00039603B68802292015A6000231800BD46D7
:1010B00002B080BD80B500AF01231800BD4680BDE1
:1010C00080B582B000AF78603960044B16221A6098
:1010D00001235B421800BD4602B080BDD002002053
:1010E00080B582B000AF78603960044B1F221A606F
:1010F00001235B421800BD4602B080BDD002002033
:1011000080B584B000AFF860B9607A600023180041
:10111000BD4604B080BD80B582B000AF7860396054
:101120003B68802292015A6000231800BD4602B03D
:1011300080BD80B582B000AF786001235B421800AB
:10114000BD4602B080BD80B582B000AF7860044B70
:1011500002221A6001235B421800BD4602B080BD26
:10116000D002002080B582B000AF7860044B0A2224
:101170001A6001235B421800BD4602B080BDC04624
:10118000D002002080B582B000AF78607B68022B6F
:1011900001D8012303E0044B09221A600023180040
:1011A000BD4602B080BDC046D002002080B586B0EA
:1011B00000AF7860144B7B61144B154A944663442E
:1011C0003B61144B1B68002B02D1124B7A691A60E9
:1011D000104B1B68FB600F4B1A687B68D3183A6989
:1011E0009A4205D20C4B0C221A6001235B4206E0A6
:1011F000084B1A687B68D218064B1A60FB68180007
:10120000BD4606B080BDC046D402002000200020AC
:1012100000F0FFFFEC010020D002002080B588B074
:1012200000AFF860B9607A600023BB61FB68002BF7
:1012300022D10023FB611AE0FFF7FDFD03001A0035
:1012400017217B181A70BB685A1CBA607A1812787A
:10125000D2B21A70BB690133BB617B181B78DBB259
:101260000A2B01D1BB690EE0FB690133FB61FA690E
:101270007B689A42E0DB05E0054B09221A600123F6
:101280005B4200E0BB691800BD4608B080BDC046A7
:10129000D002002080B586B000AFF860B9607A60F7
:1012A000FB68013B012B11D800237B6109E0BB687F
:1012B0005A1CBA601B781800FFF7AEFD7B6901333A
:1012C0007B617A697B689A42F1DB05E0054B092274
:1012D0001A6001235B4200E07B681800BD4606B03F
:1012E00080BDC046D002002080B500AF00F0B6FA45
:1012F000002000F0B8FA012000F0D2FAC046BD4646
:1013000080BD80B582B000AF0200FB1D1A70BB1D0E
:101310000A1C1A70204BBA1D12781A70FB1D1B781C
:101320001900052000F02BFA0021112000F027FA07
:10133000194B1B781900122000F021FA002113200C
:1013400000F01DFA0021142000F019FA00211520E8
:1013500000F015FA0021162000F011FA06210620EF
:1013600000F00DFA0821002000F009FA0321012005
:1013700000F005FA0321022000F001FA4F210420B9
:1013800000F0FDF900211C2000F0F9F900F020F92F
:10139000C046BD4602B080BDC402002080B582B008
:1013A00000AF7860002000F05EFA7B68052219002B
:1013B0000B2000F02BFA012000F055FAC046BD4684
:1013C00002B080BD80B500AF024B1B781800BD464F
:1013D00080BDC046C402002080B582B000AF7860F6
:1013E0007B68052219000A2000F010FA7B680522AC
:1013F0001900102000F00AFAC046BD4602B080BDB8
:1014000090B583B000AFFC1D00F0B2F8030023706C
:10141000FB1D1B784022134001D0012305E000F0A2
:1014200008F803005A425341DBB21800BD4603B02E
:1014300090BD80B582B000AFFB1D012219001720BE
:1014400000F0C0F9FB1D1B7801221340DBB218002D
:10145000BD4602B080BD90B583B000AF002000F063
:101460001FFA6020FFF7BEF8FC1D0020FFF7BAF856
:1014700003002370012000F013FAFB1D1B781800F5
:10148000BD4603B090BD80B582B000AF786000204B
:1014900000F006FA6120FFF7A5F8094B1A78796881
:1014A0007B68180000F019F9012000F0F9F94021DB
:1014B000072000F064F9C046BD4602B080BDC046BA
:1014C000C402002080B582B000AFFB1D01221900CC
:1014D000082000F077F9FB1D1B780F221340DAB2C9
:1014E000FB1D1A70FB1D1B781800BD4602B080BDA5
:1014F00080B582B000AF7860002000F0B4F900F051
:1015000083F8002000F0CCF9E120FFF76BF8012010
:1015100000F0C6F9002000F0C3F9A020FFF762F840
:10152000084B1A787B681100180000F002F90120BE
:1015300000F0B6F9012000F096F9C046BD4602B0B1
:1015400080BDC046C402002090B583B000AFFC1D32
:1015500000F00EF803002370FB1D1B7830221340AF
:1015600001D0002300E001231800BD4603B090BD68
:1015700090B583B000AF002000F092F9FC1DFF2071
:10158000FFF730F803002370012000F089F9FB1DFC
:101590001B781800BD4603B090BD90B583B000AF76
:1015A000FC1DFFF7E5FF03002370FB1D1B782022C5
:1015B000134001D0002307E0FB1D1B7810221340CD
:1015C00001D0012300E0FF231800BD4603B090BD09
:1015D00080B500AF002000F063F9E220FFF702F8C9
:1015E000012000F05DF97021072000F0C8F800200C
:1015F00000F039F90B21002000F0C1F8012000F0C3
:1016000032F9C046BD4680BD80B500AF70210720CD
:1016100000F0B5F80A21002000F0B1F8C046BD4640
:1016200080BD80B500AF002000F01DF9082100202A
:1016300000F0A5F8C046BD4680BD90B585B000AFAE
:101640000200FB1D1A700F243B1900221A700E2392
:10165000FB1800221A70002000F052F93B190022FA
:101660001A702EE0FB1D1A780F23FB181B78072138
:10167000CB1A1A4113000122134003D0012000F0BD
:1016800049F902E0002000F045F9012000F038F9A6
:101690000E243A193B191B78DB18137000F044F93B
:1016A000031E05D03B193A19127801210A431A701A
:1016B000002000F025F90F217B181A787B180132E1
:1016C0001A700F23FB181B78072BCBD90E23FB189E
:1016D0001B781800BD4605B090BDB0B586B000AF10
:1016E000F860B960FB1D1A701723FB1800221A70EE
:1016F00013E017257B191B78FA68D31819787B1922
:101700001B78BA68D4180800FEF76CFF030023703A
:101710007B191A787B1901321A701723FA18FB1DEE
:1017200012781B789A42E4D3C046C046BD4606B044
:10173000B0BD90B585B000AF78600A00FB1C1A7090
:101740000F23FB1800221A700DE00F243B191B78A1
:101750007A68D3181B781800FEF744FF3B191A78F3
:101760003B1901321A700F23FA18FB1C12781B78F0
:101770009A42EAD3C046C046BD4605B090BD80B58A
:1017800082B000AF0200FB1D1A70BB1D0A1C1A704C
:10179000002000F085F8FB1D1B781F221340DBB2F0
:1017A00020221343DBB21800FEF71CFFBB1D1B7881
:1017B0001800FEF717FF012000F072F8C046BD4682
:1017C00002B080BD80B582B000AF39601100FB1D52
:1017D000021C1A70BB1D0A1C1A70002000F060F871
:1017E000FB1D1B781F221340DBB21800FEF7FAFE28
:1017F000BB1D1A7839683B681800FFF76EFF01209F
:1018000000F04EF8C046BD4602B080BD80B582B043
:1018100000AF39601100FB1D021C1A70BB1D0A1CB1
:101820001A70002000F03CF8FB1D1B781F221340AB
:10183000DBB220221343DBB21800FEF7D3FEBB1D40
:101840001A783B6811001800FFF773FF012000F0C1
:1018500027F8C046BD4602B080BDC04680B500AF87
:10186000C046BD4680BD80B582B000AF0200FB1D02
:101870001A70FB1D1B78002B06D0084B1A68074B0B
:1018800008210A431A6005E0044B1A68034B08213B
:101890008A431A60C046BD4602B080BD14000048AD
:1018A00080B584B000AF0200FB1D1A70FB1D1B78D1
:1018B000002B0FD00023FB6002E0FB680133FB60CC
:1018C000FB68312BF9DD0D4B1A680C4B10210A43D4
:1018D0001A600EE0094B1A68084B10218A431A60FF
:1018E0000023FB6002E0FB680133FB60FB68312BE7
:1018F000F9DDC046BD4604B080BDC04614000048B6
:1019000080B582B000AF0200FB1D1A70C046BD4614
:1019100002B080BD80B582B000AF0200FB1D1A701E
:10192000C046BD4602B080BD80B500AFC0461800BD
:10193000BD4680BD03460B437FD4002243088B4243
:1019400074D303098B425FD3030A8B4244D3030B46
:101950008B4228D3030C8B420DD3FF22090212BA0B
:10196000030C8B4202D31212090265D0030B8B4287
:1019700019D300E0090AC30B8B4201D3CB03C01A71
:101980005241830B8B4201D38B03C01A5241430B4C
:101990008B4201D34B03C01A5241030B8B4201D33C
:1019A0000B03C01A5241C30A8B4201D3CB02C01AA7
:1019B0005241830A8B4201D38B02C01A5241430A1F
:1019C0008B4201D34B02C01A5241030A8B4201D30E
:1019D0000B02C01A5241CDD2C3098B4201D3CB01B5
:1019E000C01A524183098B4201D38B01C01A524164
:1019F00043098B4201D34B01C01A524103098B4268
:101A000001D30B01C01A5241C3088B4201D3CB0052
:101A1000C01A524183088B4201D38B00C01A524135
:101A200043088B4201D34B00C01A5241411A00D2E5
:101A300001465241104670475DE0CA0F00D049424E
:101A4000031000D34042534000229C4603098B42BE
:101A50002DD3030A8B4212D3FC22890112BA030A46
:101A60008B420CD3890192118B4208D389019211C8
:101A70008B4204D389013AD0921100E08909C3094D
:101A80008B4201D3CB01C01A524183098B4201D34F
:101A90008B01C01A524143098B4201D34B01C01A3A
:101AA000524103098B4201D30B01C01A5241C308B2
:101AB0008B4201D3CB00C01A524183088B4201D321
:101AC0008B00C01A5241D9D243088B4201D34B003C
:101AD000C01A5241411A00D20146634652415B107E
:101AE000104601D34042002B00D54942704763465F
:101AF0005B1000D3404201B5002000F005F802BDA4
:101B00000029F8D016E770477047C046F7B58B89B3
:101B100005000C001A075FD44A68002A04DC0A6C2E
:101B2000002A01DC0020FEBDE76A002FFAD0002267
:101B300080212E682A601A0049010A400B4234D0E5
:101B4000606DA3895B0706D56368C01A636B002BC1
:101B500001D0236CC01A0200216A00232800E76A22
:101B6000B847A189431C06D12B681D2B31D82C4ABC
:101B7000DA40D3072DD50023636023692360CB04AB
:101B800005D5431C02D12B68002B00D16065616B29
:101B90002E600029C6D023004433994202D0280089
:101BA00000F00CFA00206063BDE701232800216AE1
:101BB000B847431CC5D12B68002BC2D01D2B01D0C8
:101BC000162B01D12E60ADE74023A2891343A381D8
:101BD000A9E740230B43FAE70F69002FA2D00A6858
:101BE0000F60D21B019200229B0700D14A69A260BC
:101BF000019B002B00DC95E73A002800019B216A3D
:101C0000A66AB047002806DC40230120A289404292
:101C10001343A38187E7019B3F181B1A0193E7E752
:101C2000010040200B6970B505000C00002B02D1AB
:101C30000025280070BD002804D08369002B01D145
:101C400000F0C8F8144B9C421BD16C680C22A35EB8
:101C5000002BEDD0626ED20704D49B0502D4A06D98
:101C600000F094F928002100FFF750FF636E050093
:101C7000DB07DED4A3899B05DBD4A06D00F08CF9D3
:101C8000D7E7064B9C4201D1AC68DFE7044B9C428E
:101C9000DCD1EC68DAE7C046D46D0008F46D0008CA
:101CA000B46D0008010010B5002805D1054B0649A8
:101CB000186800F046F910BD044B1868FFF7B2FF32
:101CC000F9E7C046146E0008251C00081400002027
:101CD000002310B504000360436083608181436684
:101CE0001900C28103614361836108225C3000F006
:101CF0005DF9054B6362054B2462A362044BE3620A
:101D0000044B236310BDC046612C00088D2C0008D5
:101D1000C52C0008F12C000810B5024900F011F99B
:101D200010BDC046251C0008436E10B5DB0705D466
:101D300083899B0502D4806D00F028F9002010BD36
:101D4000436E10B5DB0705D483899B0502D4806DF3
:101D500000F022F9002010BD70B568254A1E5543D9
:101D60000E002900743100F073F9041E08D0002120
:101D70002A00016046600C30A060683200F016F95D
:101D8000200070BD10B5024B1868FFF7C5FF10BDED
:101D9000146E000810B5024800F0F8F810BDC046F7
:101DA000CD02002010B5024800F0F6F810BDC04684
:101DB000CD02002010B5024800F0E8F810BDC04682
:101DC000C802002010B5024800F0E6F810BDC04679
:101DD000C802002013B50400FFF7ECFFA369002B35
:101DE00002D0FFF7EFFF13BDA364E3642365134B39
:101DF000134A1B68A2620193A34201D10123A3618C
:101E0000200000F01FF86060200000F01BF8A060C8
:101E1000200000F017F800220421E0606068FFF75E
:101E200057FF01220921A068FFF752FF0222122169
:101E3000E068FFF74DFF0123A361D2E7146E0008AD
:101E4000191D0008F8B50700FFF7A4FF1F4B1E6817
:101E5000B369002B02D13000FFF7BCFF4836B468ED
:101E60007368013B04D53368002B22D03668F6E74F
:101E70000C22A55E002D1AD12000154B5830E360CE
:101E8000656600F07FF8FFF78DFF2000082229002B
:101E90002560A560656025616561A5615C3000F025
:101EA00085F86563A563A564E5642000F8BD683422
:101EB000D7E704213800FFF74FFF041E3060D5D16B
:101EC000FFF770FF0C233B60EFE7C046146E00087D
:101ED0000100FFFF10B5FFF75DFF034B03491868D2
:101EE00000F014F810BDC04614000020291D0008A1
:101EF00010B5044B0449186800F008F8FFF752FFCA
:101F000010BDC04614000020411D0008F7B5483040
:101F1000040000260191A5686768013F04D5246884
:101F2000002CF8D13000FEBDAB89012B07D90E2261
:101F3000AB5E013303D02800019B98470643683508
:101F4000EBE7F7B504000600002701914834636809
:101F5000A5680093009B013B009304D52468002CE6
:101F6000F5D13800FEBDAB89012B08D90E22AB5E3E
:101F7000013304D029003000019B9847074368359E
:101F8000E8E7704770477047704770477047012017
:101F900070470120704770477047002310B59A4280
:101FA00000D110BDCC5CC4540133F8E703008218A3
:101FB000934200D1704719700133F9E770B50500FD
:101FC000002910D00C1F2368002B00DAE418280029
:101FD00001F0B6FE1D4A1368002B05D16360146042
:101FE000280001F0B5FE70BDA34208D92168601831
:101FF0008342F3D118685B6841182160EEE71A004C
:102000005B68002B01D0A342F9D911685018A04297
:102010000BD120680918501811608342E0D118686C
:102020005B68411811605360DAE7A04202D90C23C3
:102030002B60D5E721686018834203D118685B687C
:102040004118216063605460CAE7C046F001002077
:10205000F8B50323CD1C9D43083506000C2D1FD277
:102060000C25A9421ED8300001F06AFE25490A68F5
:102070001400002C1AD1244F3B68002B04D12100FE
:10208000300000F0DBFD38602900300000F0D6FDA4
:10209000431C2BD10C233000336001F059FE03E0C8
:1020A000002DDEDA0C2333600020F8BD23685B1BB3
:1020B00019D40B2B03D92360E418256003E063686F
:1020C000A2420ED10B60300001F042FE2000072238
:1020D0000B30231D9043C21A9842E6D01B1AA3501E
:1020E000E3E75360EFE722006468C2E70323C41C00
:1020F0009C43A042E1D0211A300000F09FFD431C18
:10210000DBD1C7E7F0010020F4010020F0B51E008C
:10211000002314008BB09E4204DA80210906731854
:102120001E002D23129A149F1370202303229F4315
:10213000462F07D03B00453B59424B411099013A8D
:10214000CB18109309AB049308AB0393139B009235
:102150000293109B22000193330000F061FF050001
:10216000472F02D1119BDB0728D5109BEB18079353
:10217000462F14D12B78302B0CD1002200232000C5
:10218000310002F0D9FE002804D10123109A9B1AD5
:10219000139A1360139B079A1B68D31807930022A6
:1021A00000232000310002F0C7FE002801D0079B69
:1021B00009933022099B07998B4206D32800099B7B
:1021C000159A5B1B13600BB0F0BD591C09911A7076
:1021D000F0E7F0B5831C87B0039305000C002B23B8
:1021E0000270002901DA4C4202336B70092C31DD98
:1021F0000A2704ABDE1D200039000196FFF780FCA2
:10220000013E30312000317039000294FFF792FB1B
:10221000029B0400632BEEDC019B30349A1E1300FA
:102220000399147004A8073098420ED804AB073302
:1022300000209A4204D804AB0930C018019BC01A90
:10224000039B1818401B07B0F0BD187801330870C5
:102250000131E7E73023E418AB70281DEC70F1E79B
:10226000F0B595B00C0008921A9D0993070001F093
:10227000BFFC036818000B9300F040FD002312938D
:10228000237E07221E0023680D900C930C992B6867
:10229000C90547D59B1893431A0008322A601A686B
:1022A0005B68A264E3640122A36CE56C0A936B0093
:1022B0005B080E930A98A84B0E99524204F0D8FB83
:1022C000002831D10122A44B0A980E99524202F003
:1022D00043FE002828D10022002329000A9802F09A
:1022E00031FE002803D023002D2243331A709B4D6A
:1022F000472E00D99A4D03230C9A236101339A4348
:10230000002322600A93099B210000933800089B58
:1023100013AA00F0F3F9431C00D09EE001204042D4
:1023200015B0F0BD0733B6E70A9A2B00100029005C
:1023300004F09EFB00280AD0002D03DA23002D2292
:1023400043331A70874D472ED5D9874DD3E72022C6
:102350003100636891430E915A1C47D10733636083
:1023600080230C9ADB0013430022069212AA0592E6
:1023700011AA0392232208A92360019363685218CB
:102380000292009338002B000A9A0496FFF7BEFED3
:102390000E9B05001199472B08D1CB1C02DB63680B
:1023A000994246DD3300023BDBB21E00652E24D885
:1023B00020003200013950301191FFF70AFF129AC4
:1023C0000A9013182361012A02DC2268D20701D582
:1023D00001332361232308AA9B181B78002B00D10B
:1023E00091E723002D2243331A708CE70E9A472A77
:1023F000B6D1002BB4D10133B1E7662E1BD163688F
:1024000000290DDD2161002B02D12268D20702D5FF
:10241000013359182161119BA36500230A93D9E761
:10242000002B03D101222168114200D09A1C2261A5
:10243000F1E767231E00119B129A934206DB226884
:102440002361D207E7D501332361E4E70121002BA3
:1024500001DC4918C91A5218E9E72268530508D463
:1024600023692A0038000899099DA847431C29D1EF
:1024700054E7652E00D8ECE0A06CE16C002200234C
:1024800002F05AFD002834D001233800374A089959
:10249000099DA847431C00D140E7119B129A934223
:1024A00002DB2368DB070DD5099D38000D9B0B9AD5
:1024B0000899A8470025431C00D12FE7129B013B38
:1024C000AB420ADC23689B0700D514E1139BE0684C
:1024D000984200DB24E7180022E72200012338009D
:1024E0000899099E1A32B047431C00D116E70135FE
:1024F000E4E7119B002B3BDC012338001B4A0899C1
:10250000099EB047431C00D108E7119B129A134360
:1025100002D12368DB07D5D50D9B38000B9A0899AB
:10252000099EB047431C00D1F8E600230A93119B93
:102530000A9A5B42934201DC129B92E7220001233C
:1025400038000899099E1A32B047431C00D1E5E6CD
:102550000A9B0133EAE7C046FFFFEF7F186E0008D1
:102560001C6E0008206E0008246E0008286E00080B
:10257000129AA36D0A929A4200DD0A930A9B002BDD
:102580003DDC00230E930A9BDB43DB170F93A36D07
:102590000F9A0C930A9B13400C9AD31A0E9A9342EB
:1025A00036DC119B129A934240DB2368DB073DD453
:1025B000129A0C9B1199D31A521A0A929A4200DD70
:1025C0000A930A9B002B3ADC0A9B0025DB43DB17AE
:1025D0000B93119A129B0B999B1A0A9A0A409B1A09
:1025E000AB4200DC6EE72200012338000899099E07
:1025F0001A32B047431C00D190E60135E9E70A9B47
:102600002A0038000899099EB047431CB9D185E6D5
:102610002200012338000899099E1A32B047431C52
:1026200000D17BE60E9B01330E93B0E70D9B380083
:102630000B9A0899099EB047431CB9D16EE60C9BD2
:102640003800EA1808990A9B099DA847431CBBD18A
:1026500064E6129B012B02DC01231A4238D00123CD
:102660002A0038000899099EB047431C00D155E65E
:102670000D9B38000B9A0899099EB047431C00D166
:102680004CE6A06CE16C0022002302F055FC00280F
:102690001CD1129B6A1C013B38000899099DA84770
:1026A000431C0FD13AE62200012338000899099E05
:1026B0001A32B047431C00D130E60135129B013B72
:1026C000AB42F0DC22000A9B5032CBE60025F5E756
:1026D0002A00E1E72200012338000899099E1932F7
:1026E000B047431C00D119E60135E368139A9B1AE1
:1026F000AB42EFDCEAE60025F7E7C046F7B5150088
:1027000001938A680B690C000090934200DA130071
:1027100022002B6043321278002A01D001332B6053
:1027200023689B0602D52B6802332B6022680623A0
:1027300017001F401A4227D0230043331B785A1E2C
:1027400093412268920630D4220001990098089E95
:102750004332B047431C25D0062320682A68E1682D
:1027600000250340042B03D18D1AEB43DB171D40DA
:10277000A3682269934201DD9B1AED180027BD4230
:1027800020D1002010E00137E3682A689B1ABB4281
:10279000D2DD2200012301990098089E1932B0472A
:1027A000431CF0D101204042FEBD3020E1184331EE
:1027B000087021005A1C45310978A21843320233AF
:1027C0001170C1E72200012301990098089E1A3276
:1027D000B047431CE6D00137D1E70000F0B58BB01D
:1027E00006920A0043320793059004920A7E0C0079
:1027F000109B782A06D8622A08D8002A00D1C0E0A7
:10280000582A52D026004236327022E01000633837
:102810001528F7D802F0ECFA16001F00F6FFF6FFB5
:10282000F6FFF6FF1F00F6FFF6FFF6FFF6FFA80023
:1028300036009A00F6FFF6FFB900F6FF3600F6FF05
:10284000F6FF9E0026001A684236111D19601368B3
:1028500033700123A7E0086819680A1D05060BD527
:102860000D681A60002D03DA2D23049A6D4213704F
:10287000614B0A27039332E00D681A604106F1D5D7
:102880002DB2EFE70D681968081D18602E0601D5F6
:102890000D6803E06D06FBD50D68ADB2564B0A27F7
:1028A00003936F2A17D1082715E045310A70524A61
:1028B00003921A68216820CA1A60080650D5CB070F
:1028C00002D52023194321601027002D03D1202396
:1028D00022689A4322602300002243331A706368FF
:1028E000A360002B03DB0422216891432160002DAB
:1028F00002D1049E002B0CD0049E2800390002F067
:1029000007FB039B013E5B5C33702B0005009F427D
:10291000F3D9082F09D12368DB0706D5636822693C
:10292000934202DC3023013E3370049B9B1B2361E6
:10293000079B210000930598069B09AAFFF7DEFE7E
:10294000431C35D1012040420BB0F0BD2022096864
:102950000A4322602200782145321170274AA7E7F6
:102960004806ACD5ADB2AAE71A680D68101D4969D2
:10297000186013682E0601D5196002E06D06FBD5BC
:1029800019800023049E2361D2E71A68111D196083
:10299000166800213000626801F0C6F9002801D0F5
:1029A000801B6060636823610023049A1370BFE793
:1029B0002369320006990598079DA847431CC1D09A
:1029C00023689B0715D4099BE0689842BCDA18007D
:1029D000BAE72200012306990598079E1932B047ED
:1029E000431CAFD00135E368099A9B1AAB42F0DC77
:1029F000E9E70025F7E7C0462A6E00083B6E0008AD
:102A00000EB417B5041E04D08369002B01D1FFF763
:102A1000E1F906AB2000059AA168019301F04AFE96
:102A20001EBC08BC03B018470FB40B4B13B51C6891
:102A3000002C05D0A369002B02D12000FFF7CAF9B2
:102A400005AB2000049AA168019301F033FE16BC87
:102A500008BC04B01847C0461400002070B505003B
:102A60000E00002804D08369002B01D1FFF7B2F9D2
:102A7000AB69AC68002B02D12800FFF7ABF92D4BF6
:102A80009C4222D16C68636EDB0705D4A3899B0549
:102A900002D4A06DFFF77AFAA3891B0702D5236938
:102AA000002B29D12100280000F0A4F9002823D010
:102AB00001256D42636EDB0705D4A3899B0502D413
:102AC000A06DFFF769FA280070BD1B4B9C4201D135
:102AD000AC68D8E7194B9C42D5D1EC68D3E70136F6
:102AE000A360002B04DAA2699A4216DC0A2914D0EA
:102AF00023685A1C22601970A3683178013B0029B1
:102B0000EDD1A360002B0FDA280022000A3100F07B
:102B1000FDF80A25431CCDD1CAE72200280000F0A9
:102B2000F5F8431CE8D1C3E70A2523685A1C226044
:102B30001D70BFE7D46D0008F46D0008B46D000887
:102B400010B5034B01001868FFF788FF10BDC046A1
:102B50001400002070B50D0009680400002901D0A0
:102B6000FFF7F8FF29002000FFF728FA70BD0000EA
:102B7000314B70B51B680400834249D0436A002B77
:102B80000AD00025DB68AB4247D1636A1968002987
:102B900002D02000FFF712FA6169002902D020005C
:102BA000FFF70CFA616A002902D02000FFF706FA4D
:102BB000A16B002902D02000FFF700FAE16B002989
:102BC00002D02000FFF7FAF9216C002902D0200082
:102BD000FFF7F4F9E16D002902D02000FFF7EEF9CC
:102BE000A16D002902D02000FFF7E8F9616B0029F0
:102BF00002D02000FFF7E2F9A369002B08D02000E3
:102C0000A36A9847A16C002902D02000FFF7A2FF19
:102C100070BD4959002908D10435636AD968802DEF
:102C2000F7D12000FFF7CAF9AFE70E682000FFF7E1
:102C3000C5F93100EEE7C04614000020002370B54E
:102C4000064D040008002B60FEF7B0FA431C03D1C8
:102C50002B68002B00D0236070BDC046D00200203E
:102C600070B50C000E25495F01F06AFE002803DBF9
:102C7000636D1B18636570BDA389024A1340A3816D
:102C8000F9E7C046FFEFFFFF00207047F8B51F00CF
:102C90008B8905000C001600DB0505D50E23C95EE7
:102CA0000022022300F0ACFFA389054A280013404C
:102CB000A38132000E23E15E3B0000F087F8F8BDEF
:102CC000FFEFFFFF70B50C000E25495F00F098FF85
:102CD000A389421C03D1054A1340A38170BD802201
:102CE00052011343A3816065F8E7C046FFEFFFFF81
:102CF00010B50E23C95E00F0F5F810BD0023C25CCC
:102D00000133002AFBD1581E70470000F8B50500BA
:102D10000E001400002804D08369002B01D1FFF7B6
:102D200059F8224B9C422ED16C68A369A360A389F9
:102D30001B0732D52369002B2FD023682269F7B2F5
:102D4000981A6369F6B2834205DC21002800FEF779
:102D500069FF002827D1A3680130013BA3602368E5
:102D60005A1C22601F706369834204D0A389DB0769
:102D700007D50A2E05D121002800FEF753FF0028B1
:102D800011D13000F8BD0A4B9C4201D1AC68CCE7B0
:102D9000084B9C42C9D1EC68C7E72100280000F02D
:102DA00029F80028C9D001267642EAE7D46D000848
:102DB000F46D0008B46D000810B5034B0A00010063
:102DC0001868FFF7A3FF10BD1400002070B50400C1
:102DD000080011001A000023054D2B60FEF75AFA77
:102DE000431C03D12B68002B00D0236070BDC0466C
:102DF000D0020020374B70B51D6806000C00002D76
:102E000005D0AB69002B02D12800FEF7E3FF324B5F
:102E10009C420FD16C680C23E25E93B211072DD453
:102E2000D90611D409230120336037331343A3811A
:102E3000404270BD294B9C4201D1AC68EBE7284B66
:102E40009C42E8D1EC68E6E75B0713D5616B00298B
:102E500008D023004433994202D03000FFF7AEF887
:102E6000002363632422A3899343A3810023636027
:102E7000236923600823A2891343A3812369002BBC
:102E80000BD1A0218022A389890092000B4093429C
:102E900003D02100300000F0EFFE0C22A35E0120E1
:102EA0001A0099B2024003420FD00022A260626968
:102EB0005242A261002022698242BAD10A06B8D5E4
:102EC00040221343A3810138B3E7880700D4626925
:102ED000A260EFE714000020D46D0008F46D000834
:102EE000B46D0008002370B5064D040008002B6087
:102EF000FEF7ABF8431C03D12B68002B00D02360F6
:102F000070BDC046D0020020F0B506000D693369DF
:102F100087B000200291AB426BDB0B00013DAC009F
:102F2000143305931B1903933300143301931C19B5
:102F3000039B27681B683800009301331900049332
:102F400001F060FF049B00909F4229D300239C4620
:102F50000198059F049308CF009A99B251431B0C26
:102F6000534361440A0C9B181A0C0593036894465A
:102F70009AB2049B89B2D2180368521A190C6B4694
:102F80009B8ACB1A11145B18191492B21B041A43B2
:102F9000039B049104C0BB42DDD22368002B2ED0DA
:102FA0003000029901F054F9002821DB30000024A0
:102FB000009B02990133009314301431026808C950
:102FC00092B214199AB2A21A04681B0C240CE31AC8
:102FD00014141B191C1492B21B04134308C0039B46
:102FE0008B42EBD2019AAB00D3181A68002A10D09A
:102FF000009807B0F0BD2368002B04D1013D019B70
:10300000043CA342F7D33561CAE71A68002A04D109
:10301000013D019A043B9A42F7D33561E8E700008D
:10302000F0B59FB002920393029B039C0C930D9406
:10303000446A279D0590002C08D1102000F060FE06
:10304000059B4460586284600460C460059B5B6AB1
:10305000196800290BD05A68012393404A608B609D
:10306000059800F0B5FE0022059B5B6A1A60039B81
:10307000002B21DA01232B60039B5B005B080D937F
:103080000D9DB64B2A001A931A409A4217D1B44BA1
:10309000269A28031360029B000B184301D100F00D
:1030A0008FFDB04B289A0A93002A02D0AE4B289A83
:1030B00013600A981FB0F0BD00232B60E0E70C9B63
:1030C0000D9C12931394129813990022002301F07F
:1030D00033FF041E0BD00123269A1360A34B289ABA
:1030E0000A93002AE5D0A24A28990A60E1E71CABBE
:1030F00001931DAB00930598129A139B01F0BAF946
:103100006E000690760D00D17EE012981399139B05
:10311000984A1B031B0B1A431100974B1894F6187F
:103120000022964B03F012F9954A964B02F0A2FE4C
:10313000954A964B01F02EFF040030000D0003F07D
:10314000EBFC934A934B02F095FE02000B0020002B
:10315000290001F01FFF04000D0003F0A7FC00226E
:10316000029000232000290001F0ECFE00280BD083
:10317000029803F0D1FC2B00220001F0DDFE434257
:103180005841029B1B1A029301231693029B162B94
:103190000FD812981399DA007F4B9B181A685B6856
:1031A00001F0D0FE00284BD0029B013B029300238C
:1031B00016931C9B9E1B00230B933300013B0F9324
:1031C00004D501239B1B0B9300230F93029B002B21
:1031D00038DB029A0F9B944663440F9300231592A9
:1031E0001093249B0124092B00D990E0052B02DDCC
:1031F0000024043B2493249B981E032800D98FE0CD
:1032000001F0ECFD293634831C9B1D9A9E18634BFC
:10321000F218202A0FDD40239B1A9D40604B029834
:10322000F318D840284303F0A7FC01235D4C013E6E
:103230000919189374E7202302989B1A9840F2E723
:103240001690B6E70B9B029A9B1A0B93534210936E
:1032500000231593C5E700231493259B002B63DC03
:1032600001231A000E93079325920DE00123F3E743
:103270000023259A14939446029B63440E930133D2
:103280000793002B00DC0123059A556A00226A602F
:103290000432100014306968984249D9059800F04A
:1032A0005FFD059B28605B6A1B680A93079B0E2BDA
:1032B00000D9F2E0002C00D1EFE0029B002B75DD7D
:1032C0001A000F21344B0A40D2009B181D685E681B
:1032D000029B02271C11DB050AD5334B0C401A6AEE
:1032E0005B6A1298139902F0BFF90C900D910137A7
:1032F0002D4B0893002C1FD10C980D992A003300F8
:1033000002F0B2F90C900D916BE00123B1E70023BC
:1033100014942493013B0E93079300221333A3E7E5
:1033200001231493023BF6E7259B0E930793ABE72B
:10333000013169605200ACE701231C4209D0FF183B
:10334000089B28001A685B68310002F093FD0500B5
:103350000E00089B64100833CBE7C0460000F07FE6
:103360000F270000556E0008586E0008286E0008F0
:10337000296E00080000F03F01FCFFFF0000F83F4D
:1033800061436F63A787D23FB3C8608B288AC63F6B
:10339000FB799F501344D33F886E0008320400002D
:1033A00012040000000010FE606E0008029B02275D
:1033B000002B16D0129813995C420F23D34A234056
:1033C000DB00D3181A685B6802F054FD0126002365
:1033D0000C900D91CE4D2411002C00D08DE0002BCF
:1033E00090D1169B002B00D192E00C9C0D9D0022E9
:1033F00020002900C74B01F0A5FD002800D187E07F
:10340000079B002B00D183E00E9B002B41DD029B2C
:103410000022013B119320002900BF4B02F02AFD3E
:103420000C900D910E9E013738000C9C0D9D03F001
:1034300073FB22002B0002F01DFD0022B74B01F0B0
:10344000A9FD0C900D910C9A0D9B089209930D9B70
:10345000B34A9F180997002E5ED100222000290050
:10346000B04B02F073FF3B00089A04000D0001F01E
:103470007DFD002800D0A8E2AB480D998446614448
:103480000B0020002900089A01F05CFD002800D004
:1034900099E2129B139C0C930D941D9B002B00DA58
:1034A00068E1029A0E2A00DD64E1984BD2009B1875
:1034B0001E685F68259B002B00DBD7E0079B002B75
:1034C00000DDD3E000D07DE2002230003900954BD2
:1034D00002F0D0FC0C9A0D9B01F052FD079E3700C4
:1034E000002800D054E20A9B0A9A01330893312342
:1034F0001370029B013302934FE2344205D02A68D5
:103500006B6802F0B7FC330001376410083563E7DD
:10351000029B079E119387E77C4B721ED200149981
:103520009B181A685B6800294ED000207F4902F082
:103530009BF8089A099B02F009FF0A9B0C900D91D9
:103540001793F3181B932000290003F0AFFA19908A
:1035500003F0E2FA02000B002000290002F0F6FE60
:10356000179B199C01330893179B30341C700C9ADD
:103570000D9B06000F0001F0E5FC00286CD1320025
:103580003B000020634902F0E1FE0C9A0D9B01F024
:10359000D9FC002800D0CDE01B9B089A934200D1B3
:1035A00077E70C980D9900225B4B02F063FC5A4BB5
:1035B0000C900D9100223000390002F05BFC089B5A
:1035C00004000D001793BEE70898099902F052FC19
:1035D0000A9F0C900D91BB1917932900200003F04E
:1035E00065FA089003F098FA0B0002002900200009
:1035F00002F0ACFE089B040030333B70179B013790
:103600000D00BB422BD10C980D990A9B00229B19EF
:103610000893464B01F0BEFC02000B00200029007D
:1036200001F0A4FC002800D084E00C9A0D9B00203F
:103630003E4902F08BFE02000B002000290001F041
:1036400081FC002800D124E7089B1A00013A089267
:103650001278302AF8D00893119B029345E000229B
:103660002D4B02F007FC04000D00B6E70A9B079AF9
:103670000B93013B9B180C9C0D9D0C9332003B005F
:103680002000290001F0F0FF03F010FA079003F08A
:1036900043FA32003B0002F0EDFB02000B00200079
:1036A000290002F053FE0B9B1A0001320B92089284
:1036B000079A30321A700C9A9A424ED102000B00CF
:1036C00001F068FC32003B0004000D0001F04EFCEC
:1036D00000282DD132003B002000290001F02CFCF5
:1036E000002802D0079BDB0722D40598069900F03A
:1036F0006FFB0023089A02981370269B0130186014
:10370000289B002B00D1D4E41A60D2E4886E000814
:10371000606E00080000F03F0000244000001C40E4
:103720000000C0FC000014400000C07C0000E03F2E
:10373000029B1193089B0893013B1A78392A08D100
:103740000A9A9A42F7D1119A0A99013211923022BB
:103750000A701A7801321A707EE70022CC4B02F010
:1037600089FB0022002304000D0001F0E5FB002886
:1037700084D0BAE7149A002A00D18AE0249A012A58
:103780006EDC189A002A67D0C24A9B18109D0B9CC9
:103790000B9A0121D2180B920F9A0598D3180F9308
:1037A00000F0F6FB0700002C0EDD0F9B002B0BDD5D
:1037B0000F9A2300944200DD13000B9AE41AD21AE8
:1037C0000B920F9AD31A0F93109B002B1ED0149BB1
:1037D000002B62D0002D10DD39002A00059800F082
:1037E00083FC069A01000700059800F0DAFB06004A
:1037F0000699059800F0ECFA0696109B5A1BAB420E
:1038000004D00699059800F06FFC069001210598F8
:1038100000F0BEFB159B0600002B40DD1A000100E6
:10382000059800F061FC249B06000025012B3EDC7E
:1038300000250C9BAB4236D10D9B1B03AB4232D112
:103840001A9B0D9A13422ED00B9B013501330B931B
:103850000F9B01330F9326E036231C9A9B1A95E7A2
:10386000079B5D1E109BAB4208DB5D1B079B002B7B
:103870000CDA0B9B079A9C1A002389E7109B159A78
:10388000EB1AD318109515930025EFE70B9C079BB7
:103890007EE7109D0B9C149F85E7109AB1E7249B4F
:1038A0000025012BC4DD159B0120002B08D03369B6
:1038B00003339B00F318586800F022FB2023181AEA
:1038C0000F9B1F22181803001340104246D00132EC
:1038D000D21A042A3FDD1C22D31A0B9AE418D218FC
:1038E0000B920F9AD3180F930B9B002B05DD1A0038
:1038F0000699059800F048FC06900F9B002B05DD0B
:1039000031001A00059800F03FFC0600169B002BC2
:1039100026D03100069800F09BFC002820DA029B9C
:103920000A22013B029306990023059800F069FAE8
:10393000149B0690002B00D14CE1002339000A2291
:10394000059800F05EFA0E9B0700002B47DC249BD5
:10395000022B44DD0CE0042AC6D013001C33BCE764
:10396000079B002B35DC249B022B32DD079B0E933B
:103970000E9B002B0CD131000522059800F041FA76
:1039800006000100069800F063FC002800DDAAE5AF
:10399000259BDB4302930A9B089300253100059881
:1039A00000F016FA002F00D19FE6002D05D0BD4291
:1039B00003D02900059800F00BFA3900059800F0B3
:1039C00007FA92E600263700E2E7119B37000293E0
:1039D00089E5149B002B00D1B4E0079B0E93002CCB
:1039E00005DD39002200059800F0CEFB0700380005
:1039F000002D11D07968059800F0B2F93900040063
:103A00003B690C319A1C92000C30FEF7C6FA012279
:103A10002100059800F0B8FB3D0007000A9B0793C2
:103A200031000698FFF770FA290004000F900698FD
:103A300000F00EFC3A0010903100059800F023FCD5
:103A4000C3683034119301230B93119B0890002B12
:103A500004D10100069800F0FBFB0B900598089933
:103A600000F0B6F901230C980B9A1840079B01331C
:103A70000893249B134303430ED1392C26D0109B6B
:103A8000002B01DD0F9C3134079B1C7086E7C0467C
:103A90000000244033040000109B002B03DB249A19
:103AA000134303431ED10B9B002BEDDD069901222E
:103AB000059800F069FB3100069000F0C9FB002872
:103AC00002DCE1D1E307DFD5392CDBD13923079ABA
:103AD0001370089B0893013B1A78392A67D001328A
:103AE0001A705BE70B9B002B03DD392CEED0013401
:103AF000CAE7079B0A9A1C7001239B1A079A9B1816
:103B00000E9A9A423ED000230A220699059800F0A8
:103B100078F9002306900A2229000598BD4206D1B3
:103B200000F06FF905000700089B079378E700F0A5
:103B300068F93900050000230A22059800F061F9B0
:103B40000700F1E7079B0E93002531000698FFF769
:103B5000DBF90A9B303058550E9B01350400AB420F
:103B600007DD00230A220699059800F04AF906901D
:103B7000EBE70E9B0120002B00DD180000250A9BBF
:103B80001B18089306990122059800F0FDFA3100F0
:103B9000069000F05DFB00289BDC01D1E30798D480
:103BA000089B0893013B1A78302AFAD0F6E60A9A65
:103BB0009A428FD1029B0133029331231370EDE6B9
:103BC000084B289A0A93084B002A01D0FFF76FFA96
:103BD000FFF76FFA0E9B002BB6DC249B022BB3DDA4
:103BE000C6E6C0464C6E0008546E0008F0307047C0
:103BF00000487047680100200048704768010020B5
:103C000070B50400080011001A000023054D2B6058
:103C1000FDF776FA431C03D12B68002B00D02360FC
:103C200070BDC046D002002070B50E001D000E23EE
:103C3000C95E140096B0002907DA00232B60B3890F
:103C40001B0611D48023DB000FE06A4600F08CFED7
:103C50000028F2DBF02301991B021940054BC9181B
:103C60004B4259412960EDE740230020236016B004
:103C700070BDC04600E0FFFFF7B502268B89050046
:103C80000C00334206D02300473323602361012315
:103C90006361F7BD6A4601ABFFF7C6FF00990700F5
:103CA0002800FEF7D5F9002808D10C22A35E9A055A
:103CB000EFD4032293431E43A681E4E70F4BAB628C
:103CC0008023A28920601343A381009B206163614C
:103CD000019B002B0DD028000E23E15E00F0BCFFFD
:103CE000002806D00322A38993431A00012313431B
:103CF000A381A0890743A781CBE7C046191D00080F
:103D000010B5034B01001868FEF7A2F910BDC046BC
:103D10001400002010B5034B01001868FEF74EF99F
:103D200010BDC04614000020C9B28218904201D1D3
:103D30000020704703788B42FBD00130F6E700008B
:103D400010B50248FEF722F910BDC046C902002096
:103D500010B50248FEF720F910BDC046C902002088
:103D600070B5456A06000C00002D07D11020FFF742
:103D7000C7FF7062456085600560C560756AEB6865
:103D8000002B13D0736AA200DB689B181868002808
:103D900018D101210D00A5406A1D3000920000F0ED
:103DA00046FC00280CD0446085600DE021220421EF
:103DB000300000F03CFC736AE860DB68002BE1D166
:103DC000002070BD02681A6000230361C360F8E739
:103DD00070B5466A05000C00002E07D11020FFF7D1
:103DE0008FFF6862466086600660C660002C07D060
:103DF0006B6A6268DB6892009B181A6822601C601C
:103E000070BDF7B51E0014239C4607000C0000206F
:103E10000D698C4463461B68013099B263461B6888
:103E200051431B0C534389190E0C9B1989B21E0C6C
:103E30001B045B18614608C18C468542EADC002EF3
:103E40001BD0A368AB4212DC63683800591CFFF733
:103E500087FF2100236901909A1C92000C310C30DD
:103E6000FEF79BF821003800FFF7B2FF019C2B1DE5
:103E70009B00E31801355E6025612000FEBDF7B5AB
:103E8000060018000C000830092101931500FDF709
:103E900051FD01230021834222DB3000FFF760FF48
:103EA000089B0100436101230361092D1BDD2300F1
:103EB00009331F00009364193B780A223000303B1D
:103EC000FFF79FFF01370100A742F5D12C00009BAF
:103ED000083C1C192F00019B9F4207DB0800FEBD18
:103EE0005B000131D7E709250A34F3E7631BDB5D8B
:103EF0000A223000303BFFF784FF01370100EAE778
:103F00000300020C0020824201D11B0410301A0E63
:103F100001D108301B021A0F01D104301B019A0F86
:103F200001D102309B00002B03DB01305B0000D489
:103F300020207047036802000721180008400B4248
:103F40000DD0063900200B4205D10230034203D0C8
:103F5000CB400800136070479B081360FBE799B2E1
:103F6000002901D110201B0CD9B2002901D1083041
:103F70001B0A190701D104301B09990701D102302E
:103F80009B08D907E9D401305B08E6D12020E2E79D
:103F900010B50C000121FFF7E3FE0123446103612A
:103FA00010BDF0B50B69140012690D0089B0934281
:103FB00001DA25000C002F6926696968BB19019395
:103FC000AB68BA19934200DA0131FFF7C9FE03006A
:103FD00014339C46BB199B00634402930022634642
:103FE000049002998B422CD32B0022001433BF0083
:103FF00014320693B600DB19039393190793042335
:1040000005932B00039915330092994205D34B1B5E
:10401000153B9B0801339B000593079B009A9A422E
:1040200011D3019B002B06DD029B043B02931B680E
:104030000093002B54D0049B019A18001A6109B018
:10404000F0BD04C3CDE7009B1B6898B200281CD0CC
:1040500067460024069E02CE3A688BB24343090CA1
:10406000414392B29B181B190C003A68110C61185D
:104070001C0C09190C0C9BB209040B4308C7039BC9
:10408000B342E8D86346059A9C50009B1B681E0CFF
:1040900020D063462C00604600271B681434226839
:1040A0009BB291B271430268120C8918CF1939047E
:1040B0000B43036002CC4368090C71439BB23F0C75
:1040C000CB18039ADB191F0C0430A242E7D86246D2
:1040D00005995350009B0433009304239C449CE7B0
:1040E000019B013B01939CE7F7B5032315000700F3
:1040F0000E001A401D4208D02149013A9200525840
:1041000000233100FFF77DFE0600AD1035D07C6A3C
:10411000002C07D11020FFF7F3FD78624460846023
:104120000460C4607B6A9C680193002C08D138004D
:104130001449FFF72DFF019B0400986000230360E2
:1041400001231D420AD0310022003800FFF729FF69
:10415000310001903800FFF73BFE019E6D100CD03E
:104160002068002807D1220021003800FFF719FF3E
:104170000023206003600400E2E73000FEBDC0467B
:10418000786F000871020000F0B50C001700236979
:10419000551187B0EB180293013301934968A36866
:1041A0000490019A934246DB0498FFF7D9FD020080
:1041B00014320600002311000392AB423EDBEB43B6
:1041C000DB171D40039BAD001F2138005D19230044
:1041D000226914339200084084469A180F4232D064
:1041E0000131091A05910021039567461868B84006
:1041F0000143039802C002CB03900598C1409A4244
:10420000F3D8200015300423904204D8131B153B2B
:104210009B0801339B00E950002902D0029B023326
:104220000193019B0498013B21003361FFF7D0FD0E
:10423000300007B0F0BD01315B00B2E7002298000A
:104240000A500133B9E702CB02C59A42FBD8E8E72E
:1042500002690B6930B50400D01A9A420DD19B0057
:1042600014341431E218C918043A043915680B687B
:104270009D4203D001209D4203D330BD9442F3D32D
:10428000FBE74042F9E7F0B50E00070011003000EF
:1042900087B01400FFF7DCFF051E08D101003800CD
:1042A000FFF75EFD01234561036107B0F0BD012307
:1042B0000193002804DB230034001E000023019337
:1042C00061683800FFF74CFD019B256914340194A7
:1042D000C360019BAC001B19340002933369143492
:1042E0009900631803930300002714339C46059339
:1042F000019B0493049B04CC02CB04938BB2DF1983
:1043000093B2FB1A090C120C8A1A191452181714BA
:104310009BB212041343624608C2039B9446A34215
:10432000E8D83200039915320423914204D38B1B41
:10433000153B9B0801339B00019AD418059AD318AA
:104340009C46220002998A4210D3029EE11E00225E
:104350008E4204D332000332121B920892009B1843
:10436000043B1A68002A0FD005619EE702CA8EB28C
:10437000F6190F0C311479180F14B6B209040E4354
:10438000614640C18C46DDE7013DE9E70F4B19402E
:104390000F4BC918002904DD00220B001000190082
:1043A00070474942002200230915132904DC8020AC
:1043B000000308410300F1E7143901201E2902DC43
:1043C00080200006C8400200E8E7C0460000F07FF9
:1043D0000000C0FCF7B50600036914369B00F31813
:1043E0001D1F2C680F0020000193FFF789FD20237B
:1043F0001B1A1F493B600A2816DC0B2327001B1AD7
:10440000DF4039439C460B000021AE4202D20199A5
:1044100008390968153084406046C1400C432200C9
:104420001000190003B0F0BD0027AE4202D2019D7A
:10443000083D2F680B235B429C4684440B2813D015
:10444000634620209C40C01A3B00C3401C432143CC
:104450000B000021B54201D9043D29686446C140E2
:10446000A7400F433A00DBE721430B00FAE7C046C1
:104470000000F03FF7B51D0001211400089FFFF771
:104480006FFC2B036D0006001B0B6D0D24D10193F7
:10449000002C27D068460094FFF74CFD009C0028B4
:1044A0001ED0019B20211A00091A8A40C3402243D2
:1044B00072610193019CB461631E9C4101343461BB
:1044C000002D18D0134BED1835232D18181A099B01
:1044D0003D6018603000FEBD802252031343D6E7D2
:1044E0007461E7E701A8FFF725FD0124019B346112
:1044F00073612030E4E7084BC018084B3860E318BC
:104500009B00F3185869FFF7FBFC6401099B241A10
:104510001C60DFE7CDFBFFFFCEFBFFFFFFFFFF3F90
:10452000F0B585B00D0002A90400FFF753FF00901D
:104530000191009E019F280003A9FFF74BFF24690A
:104540002D690200651B6C01A446039D029C0B00B3
:10455000641B64442505002C07DD01996F183000A9
:10456000390001F081F805B0F0BD4B1BF7E7000002
:1045700010B50400172805DC074BC4001C1920687F
:10458000616810BD002005490022054B013C01F087
:1045900071FC002CF8D1F4E7886E00080000F03FB1
:1045A0000000244070B51500136914359C00060006
:1045B0002B00013949110131890041182C199C4205
:1045C0000DD8150011350023A54203D8A31A113BBD
:1045D0009B089B00C0180023814203D870BD20CBEC
:1045E00020C6ECE708C0F7E70200006910B51432F6
:1045F0004B11984213DB0CDD1F24080020402142A0
:1046000007D099008C582100C140814001208C4284
:1046100004D19B00D318934203D8002010BD03009F
:10462000F7E7043B19680029F5D00120F6E74A4373
:1046300070B511001500FDF70BFD041E03D02A0014
:104640000021FDF7B3FC200070BD936810B5013B5D
:104650009360002B04DA9469A34207DB0A2905D092
:104660001368581C10601970080010BDFEF74EFB4F
:104670000100F9E7F8B506000F001400D518AC42A8
:1046800001D1002007E021783A003000FFF7DDFF7C
:104690000134431CF3D1F8BD936810B51400002B0E
:1046A00002D11800536010BD00F070F90023A36020
:1046B0006360F8E7F0B5A1B006000C001F0003929C
:1046C000002804D08369002B01D1FDF783FB8E4BBA
:1046D0009C421CD17468636EDB0705D4A3899B05DB
:1046E00002D4A06DFDF752FCA3891B0702D52369F4
:1046F000002B1DD121003000FEF77CFB002817D0D5
:10470000636EDB070DD50120404221B0F0BD7F4B29
:104710009C4201D1B468DEE77D4B9C42DBD1F4685A
:10472000D9E7A3899B05EED4A06DFDF735FCEAE738
:10473000002308AD6B6120336B761033AB7607979F
:10474000039F3B78002B01D0252B4ED1039BFB1AF6
:104750000593039B9F420DD0059B21003000039AD7
:10476000FFF788FF431C00D1B5E06A69059B9446BA
:1047700063446B613B78002B00D1ACE001227B1CD1
:104780000393002352426A6004A9543252182B60EA
:10479000EB60AB601370AB65039B052219785D4835
:1047A000FFF7C2FA039B5F1C002820D12A68D306BA
:1047B00004D5532304A95B1820211970130704D5CD
:1047C000532304A95B182B211970039B1B782A2BF8
:1047D00016D00021EB68039F3A78781C303A844663
:1047E000092A4FD9002911D117E00137A9E7494B10
:1047F0002A68C01A0123834013432B600397CBE739
:10480000079B191D1B680791002B01DB0B9304E02C
:104810005B42EB60022313432B603B782E2B0AD1C3
:104820007B782A2B37D1079B02371A1D1B6807920A
:10483000002B2DDB0993032239783748FFF774FAF0
:10484000002807D0344B2A68C01A40238340134302
:1048500001372B6039787B1C062230480393297678
:10486000FFF762FA002845D02D4B002B27D10722F5
:10487000079B07339343083307936B69049A9B188C
:104880006B615DE70A214B4367469B180939A3E733
:1048900001235B42CEE700231A0001376B603978B1
:1048A000781C30398446092903D9002BC3D00992DA
:1048B000C1E70A235A4367465218093BEFE707ABA3
:1048C0000093220029003000164BFDF7C9FC04902C
:1048D000049B0133D1D1636EDB0705D4A3899B050B
:1048E00002D4A06DFDF758FBA3895B0600D50AE74B
:1048F0000D980AE707AB0093220029003000094B0E
:10490000FDF76CFFE3E7C046D46D0008F46D0008C6
:10491000B46D0008846F00088A6F00088E6F00086D
:10492000612200087546000810B513000A00010056
:1049300002480068FFF7BEFE10BDC046140000200C
:1049400070B50400080011001A000023054D2B600B
:10495000FCF764FC431C03D12B68002B00D02360C0
:1049600070BDC046D0020020002370B5064D040083
:10497000080011002B60FCF78FFB431C03D12B6850
:10498000002B00D0236070BDD0020020F0B59368EA
:1049900087B00C00029003920093002B02D10020FC
:1049A00007B0F0BD8B891B0759D50B69002B56D07A
:1049B000039B02221B680193A3891F001740134227
:1049C00073D1012219001140134200D1A8E0380030
:1049D0003E0000970592009B002B00D112E10028B9
:1049E0000AD11A000A213000FFF79EF9009B5F1CD4
:1049F000002801D00130871B009B04979F4200D9FB
:104A00000493206822696369904200D803E1A26898
:104A10009D18049AAA4200DCFDE031002A0000F053
:104A20007BF9236821005B1902982360FDF7FAF8EF
:104A3000002870D105987F1B05D121000298FDF751
:104A4000F1F8002867D1009B76195B1B0093039B4C
:104A50009B685D1B0493039B9D60BCD19FE7210075
:104A60000298FEF7C7F90028A2D00120404297E73C
:104A7000019B1E685D6808330193002DF8D0724ACF
:104A80002B00954200D913003200216A0298A76AD0
:104A9000B84700283FDD039B36189B682D1A00930A
:104AA000181A039B9860E8D179E700263500E4E7FF
:104AB000019B1B680493019B5B680093019B083377
:104AC0000193009B002BF3D08023A2899B00A56853
:104AD00020681A4264D0009B9D4235D89023DB00A9
:104AE0001A4231D00326636921695E43471AF00FE9
:104AF000861900987B1C1B187610B34200D91E0043
:104B000053053ED531000298FDF7A2FA051E0AD1E1
:104B10000C23029A13604023A2891343A381A4E7C4
:104B200004910091CDE73A002169FDF736FAA38997
:104B3000464A1A4080231343A3812561ED1925605D
:104B40006661009DF61BA660009FBD4200D93D0036
:104B50002A000499206800F0DFF8A3685B1BA360BB
:104B600023685D192560049BDB190493009BDB1B04
:104B70000093039B9B68DF1B0593039B9F60A0D161
:104B80000DE73200029800F0DAF8051ED5D1216950
:104B90000298FDF713FA8022A3899343A381B7E714
:104BA0002369834203D36769009B9F4217D9009B07
:104BB0009D4200D91D002A00049900F0ADF8A368B9
:104BC00022685B1B52192F00A3602260002BCAD100
:104BD00021000298FDF726F80028C4D09BE7009A30
:104BE0001B4B10009A4200D91A483900FCF7A2FE6C
:104BF0003B00049A4343216A0298A56AA847071E0E
:104C0000B1DC88E7019B00201E685B680093019B74
:104C100008330193DFE6049A934208DCA56A320068
:104C2000216A0298A847051E00DD03E773E7049A8E
:104C3000310000F071F8049AA36815009B1AA36074
:104C400023689B182360F5E600FCFF7F7FFBFFFFD6
:104C5000FEFFFF7FFFFFFF7F002370B5064D0400BE
:104C600008002B60FCF78EFA431C03D12B68002B45
:104C700000D0236070BDC046D002002070B5141E65
:104C80000B4D01D1280070BD10000A4900F07DF8DD
:104C90000028F7D02900200000F077F80028F1D094
:104CA0002000054900F071F80028EBD00020EAE769
:104CB000956F0008976F0008896F00089423024AD7
:104CC0005B00D05C7047C0467800002010B5034BF5
:104CD0000A0001001868FFF7D1FF10BD1400002082
:104CE00037B5069D024C0095E4342468A0473EBDCC
:104CF0007800002082B0002900D101A9101E06D042
:104D0000002B06D013780B601078431E984102B038
:104D1000704702204042FAE710B5884202D98B184A
:104D2000984203D3002307E08B5C8354013AFBD203
:104D300010BDCC5CC45401339A42FAD1F8E7F8B5FF
:104D400007000D001600002905D11100FDF780F9BC
:104D500004002000F8BD002A03D1FDF72FF934002C
:104D6000F7E700F032F82C00B042F2D23100380000
:104D7000FDF76EF9041EECD029003200FDF70DF9A5
:104D800029003800FDF71AF9E3E702780B78002ACA
:104D900003D0013001319A42F7D0D01A7047000099
:104DA00010B5024CE0342468A04710BD7800002004
:104DB0000300081E05D0FF2A04D98A2201201A60A8
:104DC0004042704701200A70FBE70B1F1B68181F49
:104DD000002B01DA0B58C0187047000002B471466E
:104DE00049084900095C49008E4402BC7047C0462E
:104DF00003B47146490840004900095E49008E44E9
:104E000003BC7047002243088B4274D303098B42D2
:104E10005FD3030A8B4244D3030B8B4228D3030C8A
:104E20008B420DD3FF22090212BA030C8B4202D32C
:104E30001212090265D0030B8B4219D300E0090A54
:104E4000C30B8B4201D3CB03C01A5241830B8B425D
:104E500001D38B03C01A5241430B8B4201D34B0346
:104E6000C01A5241030B8B4201D30B03C01A5241AB
:104E7000C30A8B4201D3CB02C01A5241830A8B4230
:104E800001D38B02C01A5241430A8B4201D34B0219
:104E9000C01A5241030A8B4201D30B02C01A52417D
:104EA000CDD2C3098B4201D3CB01C01A5241830931
:104EB0008B4201D38B01C01A524143098B4201D36B
:104EC0004B01C01A524103098B4201D30B01C01A96
:104ED0005241C3088B4201D3CB00C01A5241830810
:104EE0008B4201D38B00C01A524143088B4201D33D
:104EF0004B00C01A5241411A00D20146524110469D
:104F00007047FFE701B50020FCF7FEFD02BDC0467B
:104F10000029F7D076E770478446101C62468C461D
:104F2000191C634600E0C0461FB500F033FF00289F
:104F300001D40021C8421FBD10B500F07DFE4042E3
:104F4000013010BD10B500F025FF002801DB002066
:104F500010BD012010BDC04610B500F01BFF002899
:104F600001DD002010BD012010BDC04610B500F0CD
:104F70009FFE002801DC002010BD012010BDC046AE
:104F800010B500F095FE002801DA002010BD0120C8
:104F900010BDC046F0B54F46D64646460D0001004E
:104FA0001800C0B517002B035A0A4B0F1343CA0051
:104FB000914602036E004100520AEC0F7D0F15432B
:104FC000760D490DC00F8246AC46FF00721A84422E
:104FD00000D198E0002A00DC81E0002900D1B6E091
:104FE000C9498E4200D172E180212800090408439A
:104FF0008446382A00DD5EE11F2A00DDEEE1202034
:1050000039006546801A8740D14085400D433900FC
:105010004F1EB9416746D7402943DB1B4A46551A04
:10502000A945894149425B1A984643461B0200D470
:10503000CCE043465B025B0A98464346002B00D116
:105040002CE1404601F0BEFD010008392022280075
:105050004346521A8B40D0408D4003438E4200DDC0
:1050600017E18E1B721C1F2A00DDA7E1202118000A
:105070002E00891A8D408840D640D340691E8D414C
:1050800030439846002605436B0709D00F232B4079
:10509000042B05D02B1DAB42AD416D42A8441D0031
:1050A00043461B0200D494E0974B721C9A4200D1F5
:1050B0009DE04146954BED0819400B00520549070C
:1050C0005B0229431B0B520D12051343E4072343D4
:1050D000080019001CBC90469946A246F0BD002A63
:1050E00043D08A1B002E00D02AE14C461C4300D13D
:1050F000D1E1541E012A00D11FE2834DAA4200D102
:1051000072E2220023E1002A00DC98E0002942D06C
:105110007D498E4200D1DAE080212800090408434D
:105120008446382A00DD29E11F2A00DC87E11100CE
:1051300065462039CD40202A04D040206146821A9D
:1051400091400F4339004F1EB9410D431BE1290027
:10515000394300D1B5E0511E012A00D1ABE16A48C4
:10516000824200D1B2E10A0043E76949751C0D4251
:1051700000D0CFE0002E00D093E14946194300D182
:10518000D1E16146394300D0E3E149465807C908F7
:105190000143DB0826E02900394300D191E0511E8C
:1051A000012A05D05848824200D18FE10A00B8E7B1
:1051B0003D004D444D4589416344984649428844E9
:1051C000434602261B0200D5EBE0013E6B0700D0F0
:1051D0005CE74346E9085A0711433200DB084A48B6
:1051E000824221D01B0352051B0B520D6CE700239A
:1051F000002169E72A003A4369D04A465807D10896
:10520000DA0880231B0308431A4207D02900ED085F
:105210001D4203D12A00FF0848073843430FC1004D
:105220005B07C908194313000A001A4300D113E2AF
:105230008022120313431B03334A1B0B44E7002A4B
:105240004BD08A1B002E00D1E7E02F48814200D1CD
:1052500095E1802000040343382A00DD43E11F2A42
:1052600000DDDBE120201D004E46801A8540D6403F
:1052700035434E4686403000D340461EB0419C44E4
:105280000543ED19BD429B415B42634498460E00C5
:105290007FE01E4A761A13409846F5E6280001F092
:1052A00091FC010018311F2900DCCFE62B000838E3
:1052B00083400025D2E662463A4311004F1EB941B1
:1052C000ACE649465807C9080143DB0887E7494669
:1052D0005A07C9081143DB08A6E70D49701C0842AC
:1052E00000D0BBE0002E00D014E14946194300D1A4
:1052F00075E12900394300D07EE149465807C908C5
:105300000143DB086EE7C046FF070000FFFF7FFF99
:10531000FE0700004946CD1B6146581AA945894140
:105320004942884601004046091A8846090200D5CC
:10533000A6E04146294300D07FE60023002451E740
:10534000C74CA14200D1C7E0802424042343382A5B
:1053500054DC1F2A00DDCCE020244846A41A1D009E
:105360004E46A040D640A5400400D3406246354397
:10537000661EB441D31A9C46254344E062463A4334
:1053800015006F1EBD414D444D4589414942884637
:10539000984443461B0200D418E7B14B01369E42A5
:1053A00049D04246AF4B01211A4013006A080D4014
:1053B0001543D9075B0898460D4365E618001F3E64
:1053C000F040202A03D040218A1A93401D43691ED1
:1053D0008D410023002698460543F7E611006546F7
:1053E0002039CD40202A04D040206146821A9140C5
:1053F0000F4339004F1EB94129430FE64A46134374
:105400001D006B1E9D417D1BAF429B4162465B426E
:10541000D31A984654460E0007E64846184300D172
:10542000B3E0501E012A00D10DE18D4DAA4200D1FA
:10543000A5E0020010E732000023002144E620210D
:105440003800891A65468F408D40D040791E8F41C3
:1054500005433D436746D740DB1994E7804A9042B5
:1054600000D1ECE03900494449459241634452423D
:105470009B18DD0749085B08984606000D43A5E622
:105480004A46BD1AAF42894162464942D31A5B1A65
:1054900098465446D1E56C07F9082143EB0804000F
:1054A0009DE64A461A4375D16146394314D180239B
:1054B00000241B03BCE64A46D51BA9458941624628
:1054C00049429B1A5B1A98460126AEE54A46D10826
:1054D0005A071143DB08A7E66346F9085A07544602
:1054E0001143DB08A0E64A4613431D006B1E9D4195
:1054F000C7E614001E00203CE640202A05D04024C8
:10550000A21A93404A461A4391464D466B1E9D414E
:10551000354378E74A461A4300D06BE66B07F90833
:105520001943EB0880E66146394354D06346F908D5
:105530005C072143DB08040054E64A46BD1AAF422B
:10554000894162464942D31A5B1A984604000126F3
:105550006BE54A46D51BA9458941624649429A1ADC
:10556000521A9046120232D54A46BD1AAF428941BC
:1055700062464942D31A5B1A9846040084E56346A2
:10558000F9085A071143DB084EE6F908680701439A
:10559000EB0824E662463A4300D198E64A46D10831
:1055A0005A071143DA0880231B031A4208D06046C9
:1055B000C5081D4204D154462A00F908430719437F
:1055C0004B0FC9005B07C908194313002CE641467D
:1055D000294300D0FAE500230A00002402E66B0705
:1055E000F9081943EB08FDE56346F9085B07194321
:1055F00063460400DB0817E63D004D4463444D4517
:10560000894198464942884443461B0200D4DDE55F
:105610004246144B01261A409046D7E510001E0062
:105620002038C640202A05D04020821A93404A469E
:105630001A4391464D466B1E9D41354321E60200BB
:105640000023002140E54A46D519BD428941634403
:10565000984649428844B3E50021014A0B0033E5EE
:10566000FF070000FFFF7FFFF0B557464E46454657
:10567000DE46E0B5814605000C03480092461F0057
:1056800085B0240B400DCE0F002859D0874B98428F
:1056900000D198E06B0FE4001C4380231B042343DC
:1056A0009846834BED009B46002399468344009324
:1056B0003C037B005046240B5B0DFF0F002B67D093
:1056C0007A4A934218D07A49420F8C46E4005946F0
:1056D0001443802263441204CB1A14439B46C20035
:1056E000002033007B409A464B460F2B00D9EFE059
:1056F00070499B00CB589F466F4B52469C462243B5
:10570000E344002A00D095E0494602231943894624
:1057100000240220E5E700230024002552461B0553
:105720002343D20713432800190005B03CBC904620
:105730009946A246AB46F0BD002400255B4BEDE741
:105740004B462343984600D189E0002C00D1E0E18C
:10575000200001F037FA010002000B391D235B1A0B
:1057600049461000D940083884400B004D46234379
:105770009846854051483C03831A9B46002399462E
:1057800000937B005046240B5B0DFF0F002B97D13D
:105790005246224355D0002C00D1CAE1200001F02E
:1057A00011FA02000B3A1D2301009B1A52460839D8
:1057B000DA408C40144352468A40414B58449B4641
:1057C000834400208DE74B462343984640D108236D
:1057D0009946063B00258346009369E7B246009B45
:1057E000022BA9D0032B00D111E2012B93D0354A13
:1057F0005A44002A00DC3CE16B0700D0A7E1ED0829
:105800004346DB0106D542462F4B1A409046802284
:10581000D2005A442D4B9A428EDC4346520558071B
:105820005C020543240B530D78E7BA46A0461500E9
:105830000090D4E74A4603231A4391460320524678
:105840004FE749460123194389460024012048E7D0
:105850000C239946093BA0468346009328E704237E
:10586000994600239B4601330025009320E700233F
:1058700080249A4600250D4B24034FE780234146A0
:105880001B03194208D01C4206D11C432403BA460C
:105890001500064B240B41E78024434624031C4398
:1058A0002403B246014B240B38E7C046FF07000033
:1058B00001FCFFFFA070000801F8FFFF0DFCFFFFD7
:1058C000F3030000FF030000FFFFFFFEFE070000E0
:1058D000444500D216E100D111E101235B429C4610
:1058E0002E0040460025E3442302140E1C431B0CEB
:1058F000994623041F0C1202494600920197FFF7B4
:1059000007FB02007A430B04310C804619438A429C
:105910000BD901235B429C460919E0448C4204D810
:105920008A4202D9831E98460919881A4946FFF708
:10593000EFFA09048C4631046646019A090C424389
:10594000030031438A4204D90919013B8C4200D833
:1059500011E1891A4246009E12041A43330C1F00BB
:10596000100C9046029313043204160C32001B0CE8
:105970005A4303967B4346437843170CBC469B1916
:1059800063449E4203D980267602B44660441E0CCE
:10599000301816041B04360C9E19814200D29CE07C
:1059A00000D197E0AE1B091AB54280414042081A67
:1059B000844200D111E14946FFF7AAFA019A0B048B
:1059C0004243310C050019438A4207D90919013DA8
:1059D0008C4203D88A4201D9851E0919881A494682
:1059E000FFF796FA09048C4631046646019A090CC1
:1059F0004243030031438A4207D90919013B8C42D3
:105A000003D88A4201D9831E0919039E891A3200DC
:105A10002D041D43029F2B041B0C5A437B439C46C1
:105A2000280C4643130CB444634478439E4203D984
:105A300080267602B44660441E0C12041B04120C2D
:105A400030189B18814206D302D001231D43CEE6B5
:105A5000002B00D1CBE661186E1EA14200D2A4E05B
:105A6000814200D2C9E000D1D9E03500EDE701253F
:105A70006D420121891A382900DD4CE61F2900DC1E
:105A80007FE01F235B429A1A4346D340202904D06B
:105A90004446654A5A44944025436A1E954107226C
:105AA0002B43150000241D401A4200D1A1E00F2213
:105AB00000241A40042A00D198E01A1D9A429B4102
:105AC0005B42E4181300220200D48FE0012300247B
:105AD000002523E6B54200D364E743465A1E009BE7
